:060000000A128A11FC2F18
:100F740083160313860187010800F001F101133081
:100F84007102883003197002031808000130F00759
:100F94000318F10A0030F107C12F0A128A11BA2787
:100FA4000A128A110830F3000030F4007408803A01
:100FB400FF0080307F02031DE12F01307302031C08
:100FC400D42F0A128A11BF270A128A110130F200A3
:100FD400730AEE2F0310F20DFF3E031DEC2F72086F
:100FE400831203138600FF30F3070318F40AFF305B
:0C0FF400F407D82F83010A128A11CF2FB6
:02400E00323F3F
:00000001FF
